{
  "contractName": "BankGurantee",
  "abi": [
    {
      "constant": false,
      "inputs": [],
      "name": "setExporter",
      "outputs": [],
      "payable": true,
      "stateMutability": "payable",
      "type": "function"
    },
    {
      "constant": false,
      "inputs": [],
      "name": "setImporter",
      "outputs": [],
      "payable": true,
      "stateMutability": "payable",
      "type": "function"
    },
    {
      "constant": false,
      "inputs": [],
      "name": "initiatePayment",
      "outputs": [],
      "payable": true,
      "stateMutability": "payable",
      "type": "function"
    },
    {
      "constant": true,
      "inputs": [],
      "name": "getBalance",
      "outputs": [
        {
          "name": "",
          "type": "uint256"
        }
      ],
      "payable": false,
      "stateMutability": "view",
      "type": "function"
    },
    {
      "constant": false,
      "inputs": [],
      "name": "disbursePayment",
      "outputs": [],
      "payable": true,
      "stateMutability": "payable",
      "type": "function"
    }
  ],
  "bytecode": "0x608060405234801561001057600080fd5b5061028d806100206000396000f3fe60806040526004361061004a5760003560e01c806312065fe01461004f5780631bd9c46e1461007a578063a952a12e14610084578063b35893f31461008e578063f62c7c7f14610098575b600080fd5b34801561005b57600080fd5b506100646100a2565b6040518082815260200191505060405180910390f35b6100826100c1565b005b61008c610104565b005b610096610111565b005b6100a0610154565b005b60003073ffffffffffffffffffffffffffffffffffffffff1631905090565b33600260006101000a81548173ffffffffffffffffffffffffffffffffffffffff021916908373ffffffffffffffffffffffffffffffffffffffff160217905550565b3460005401600081905550565b33600160006101000a81548173ffffffffffffffffffffffffffffffffffffffff021916908373ffffffffffffffffffffffffffffffffffffffff160217905550565b600160009054906101000a900473ffffffffffffffffffffffffffffffffffffffff1673ffffffffffffffffffffffffffffffffffffffff166108fc3073ffffffffffffffffffffffffffffffffffffffff16319081150290604051600060405180830381858888f193505050501580156101d3573d6000803e3d6000fd5b506000600160006101000a81548173ffffffffffffffffffffffffffffffffffffffff021916908373ffffffffffffffffffffffffffffffffffffffff1602179055506000600260006101000a81548173ffffffffffffffffffffffffffffffffffffffff021916908373ffffffffffffffffffffffffffffffffffffffff1602179055506000808190555056fea165627a7a72305820aaa9cb87db6b76f1f4e5c48a67ec46153259ae35816333dc556c1881233c950d0029",
  "source": "pragma solidity ^0.5.0;\n\ncontract BankGurantee {\n    \n    uint amountReceived;\n    address payable exporter;\n    address importer;\n    \n    function setExporter() public payable{\n        exporter = msg.sender;\n    }\n    \n    function setImporter() public payable{\n        importer = msg.sender;\n    }\n    \n    function initiatePayment() public payable{\n        amountReceived=amountReceived+msg.value;\n    }\n\n    function getBalance() public view returns(uint) {\n        return address(this).balance;        \n    }    \n\n    function disbursePayment() public payable{\n        exporter.transfer(address(this).balance);\n        exporter=address(0);\n        importer=address(0);\n        amountReceived=0;\n    }\n    \n\n}",
  "sourcePath": "/home/sd/ethereum-examples/contracts/BankGurantee.sol",
  "compiler": {
    "name": "solc",
    "version": "0.5.8+commit.23d335f2.Emscripten.clang"
  },
  "schemaVersion": "3.0.11",
  "updatedAt": "2019-11-07T09:17:10.910Z",
  "devdoc": {
    "methods": {}
  },
  "userdoc": {
    "methods": {}
  }
}