{
  "contractName": "Distribute",
  "abi": [
    {
      "inputs": [],
      "payable": false,
      "stateMutability": "nonpayable",
      "type": "constructor"
    },
    {
      "payable": true,
      "stateMutability": "payable",
      "type": "fallback"
    },
    {
      "constant": false,
      "inputs": [],
      "name": "distributeFunds",
      "outputs": [],
      "payable": true,
      "stateMutability": "payable",
      "type": "function"
    },
    {
      "constant": true,
      "inputs": [],
      "name": "getFundsBalanceOfContract",
      "outputs": [
        {
          "name": "_bal",
          "type": "uint256"
        }
      ],
      "payable": false,
      "stateMutability": "view",
      "type": "function"
    }
  ],
  "bytecode": "0x608060405234801561001057600080fd5b506101e9806100206000396000f3fe6080604052600436106100295760003560e01c80633a6a4d2e1461002b578063e0037cb814610035575b005b610033610060565b005b34801561004157600080fd5b5061004a610162565b6040518082815260200191505060405180910390f35b600073a52d469d495d8385cc6ab3e67f4a114a3bfb067390506000736ce7e34e46a14d34ed2dd7661f426a59e7dca107905060006100b63073ffffffffffffffffffffffffffffffffffffffff16316002610184565b90508273ffffffffffffffffffffffffffffffffffffffff166108fc829081150290604051600060405180830381858888f193505050501580156100fe573d6000803e3d6000fd5b508173ffffffffffffffffffffffffffffffffffffffff166108fc3073ffffffffffffffffffffffffffffffffffffffff16319081150290604051600060405180830381858888f1935050505015801561015c573d6000803e3d6000fd5b50505050565b60003073ffffffffffffffffffffffffffffffffffffffff1631905080905090565b600080821161018f57fe5b600082848161019a57fe5b0490508284816101a657fe5b068184020184146101b357fe5b809150509291505056fea165627a7a7230582006ff9bcc3e50bcdcd90271195bfdc286694da505e5c46286b21df4de184330550029",
  "source": "pragma solidity ^0.5.0;\n\ncontract Distribute {\n\nfunction() payable external {\n}\n\nfunction distributeFunds() public  payable {\n\n\taddress payable owner1= 0xa52D469D495D8385cC6AB3E67F4A114a3BFb0673 ;\n\taddress payable owner2= 0x6Ce7E34E46A14d34ed2DD7661F426a59e7Dca107 ;\n\n\tuint partValue= safeDiv(address(this).balance,2);\n    owner1.transfer(partValue);\n\towner2.transfer(address(this).balance);\n\n}\n\nfunction getFundsBalanceOfContract() public view returns (uint _bal)  {\n\n\t_bal=address(this).balance;\n\treturn _bal;\n}\n\nfunction safeDiv(uint a, uint b) private pure returns (uint) {\n    assert(b > 0);\n    uint c = a / b;\n    assert(a == b * c + a % b);\n    return c;\n}\n\nconstructor() public {\n}\n\n\n}\n\n",
  "sourcePath": "/home/sd/ethereum-examples/contracts/Distribute.sol",
  "compiler": {
    "name": "solc",
    "version": "0.5.8+commit.23d335f2.Emscripten.clang"
  },
  "schemaVersion": "3.0.11",
  "updatedAt": "2019-11-07T09:17:10.581Z",
  "devdoc": {
    "methods": {}
  },
  "userdoc": {
    "methods": {}
  }
}