{
  "contractName": "DNSNaming",
  "abi": [
    {
      "constant": true,
      "inputs": [
        {
          "name": "_index",
          "type": "uint256"
        }
      ],
      "name": "getSubscription",
      "outputs": [
        {
          "name": "",
          "type": "string"
        },
        {
          "name": "",
          "type": "uint256"
        }
      ],
      "payable": false,
      "stateMutability": "view",
      "type": "function"
    },
    {
      "constant": true,
      "inputs": [
        {
          "name": "_index",
          "type": "uint256"
        }
      ],
      "name": "getSubscriptionName",
      "outputs": [
        {
          "name": "",
          "type": "string"
        }
      ],
      "payable": false,
      "stateMutability": "view",
      "type": "function"
    },
    {
      "constant": true,
      "inputs": [
        {
          "name": "_index",
          "type": "uint256"
        }
      ],
      "name": "getSubscriptionYears",
      "outputs": [
        {
          "name": "",
          "type": "uint256"
        }
      ],
      "payable": false,
      "stateMutability": "view",
      "type": "function"
    },
    {
      "constant": true,
      "inputs": [],
      "name": "getSubscriptionLength",
      "outputs": [
        {
          "name": "",
          "type": "uint256"
        }
      ],
      "payable": false,
      "stateMutability": "view",
      "type": "function"
    },
    {
      "constant": false,
      "inputs": [
        {
          "name": "_dnsName",
          "type": "string"
        }
      ],
      "name": "buyDNSName",
      "outputs": [
        {
          "name": "",
          "type": "uint256"
        }
      ],
      "payable": true,
      "stateMutability": "payable",
      "type": "function"
    }
  ],
  "bytecode": "0x608060405234801561001057600080fd5b506108d3806100206000396000f3fe60806040526004361061004a5760003560e01c80630a8abd811461004f578063112f21801461009e5780632530ea71146101525780639e932a9d1461017d578063dc311dd31461024c575b600080fd5b34801561005b57600080fd5b506100886004803603602081101561007257600080fd5b8101908080359060200190929190505050610307565b6040518082815260200191505060405180910390f35b3480156100aa57600080fd5b506100d7600480360360208110156100c157600080fd5b810190808035906020019092919050505061032e565b6040518080602001828103825283818151815260200191508051906020019080838360005b838110156101175780820151818401526020810190506100fc565b50505050905090810190601f1680156101445780820380516001836020036101000a031916815260200191505b509250505060405180910390f35b34801561015e57600080fd5b506101676103ee565b6040518082815260200191505060405180910390f35b6102366004803603602081101561019357600080fd5b81019080803590602001906401000000008111156101b057600080fd5b8201836020820111156101c257600080fd5b803590602001918460018302840111640100000000831117156101e457600080fd5b91908080601f016020809104026020016040519081016040528093929190818152602001838380828437600081840152601f19601f8201169050808301925050505050505091929192905050506103fa565b6040518082815260200191505060405180910390f35b34801561025857600080fd5b506102856004803603602081101561026f57600080fd5b810190808035906020019092919050505061052d565b6040518080602001838152602001828103825284818151815260200191508051906020019080838360005b838110156102cb5780820151818401526020810190506102b0565b50505050905090810190601f1680156102f85780820380516001836020036101000a031916815260200191505b50935050505060405180910390f35b600080828154811061031557fe5b9060005260206000209060020201600101549050919050565b60606000828154811061033d57fe5b90600052602060002090600202016000018054600181600116156101000203166002900480601f0160208091040260200160405190810160405280929190818152602001828054600181600116156101000203166002900480156103e25780601f106103b7576101008083540402835291602001916103e2565b820191906000526020600020905b8154815290600101906020018083116103c557829003601f168201915b50505050509050919050565b60008080549050905090565b6000806000905060008090505b6000805490508110156104955761043b6000828154811061042457fe5b906000526020600020906002020160000185610612565b1561048857346000828154811061044e57fe5b906000526020600020906002020160010154016000828154811061046e57fe5b906000526020600020906002020160010181905550600191505b8080600101915050610407565b5060001515811515141561051f57600080548091906001016104b79190610751565b50826000600160008054905003815481106104ce57fe5b906000526020600020906002020160000190805190602001906104f2929190610783565b503460006001600080549050038154811061050957fe5b9060005260206000209060020201600101819055505b600080549050915050919050565b6060600080838154811061053d57fe5b90600052602060002090600202016000016000848154811061055b57fe5b906000526020600020906002020160010154818054600181600116156101000203166002900480601f0160208091040260200160405190810160405280929190818152602001828054600181600116156101000203166002900480156106025780601f106105d757610100808354040283529160200191610602565b820191906000526020600020905b8154815290600101906020018083116105e557829003601f168201915b5050505050915091509150915091565b6000808390506060839050805182805460018160011615610100020316600290049050146106455760009250505061074b565b60008090505b828054600181600116156101000203166002900490508110156107435781818151811061067457fe5b602001015160f81c60f81b7effffffffffffffffffffffffffffffffffffffffffffffffffffffffffffff191683828154600181600116156101000203166002900481106106be57fe5b8154600116156106dd5790600052602060002090602091828204019190065b9054901a7f0100000000000000000000000000000000000000000000000000000000000000027effffffffffffffffffffffffffffffffffffffffffffffffffffffffffffff191614610736576000935050505061074b565b808060010191505061064b565b506001925050505b92915050565b81548183558181111561077e5760020281600202836000526020600020918201910161077d9190610803565b5b505050565b828054600181600116156101000203166002900490600052602060002090601f016020900481019282601f106107c457805160ff19168380011785556107f2565b828001600101855582156107f2579182015b828111156107f15782518255916020019190600101906107d6565b5b5090506107ff919061083a565b5090565b61083791905b808211156108335760008082016000610822919061085f565b600182016000905550600201610809565b5090565b90565b61085c91905b80821115610858576000816000905550600101610840565b5090565b90565b50805460018160011615610100020316600290046000825580601f1061088557506108a4565b601f0160209004906000526020600020908101906108a3919061083a565b5b5056fea165627a7a7230582074de8ad7bf3683914419457be80ab79f8cfcced12b923208f3ac17edf010a5230029",
  "source": "pragma solidity ^0.5.0;\ncontract DNSNaming {\n    struct DNSSubscription{\n        string dnsName;\n        uint subscriptionYears;\n    }\n    DNSSubscription [] private  subscriptions;     \n    function getSubscription(uint _index) public view returns(string memory,uint) {\n        return (subscriptions[_index].dnsName,subscriptions[_index].subscriptionYears);\n    }\n    function getSubscriptionName(uint _index) public view returns(string memory) {\n        return subscriptions[_index].dnsName;\n    }\n    function getSubscriptionYears(uint _index) public view returns(uint) {\n        return subscriptions[_index].subscriptionYears;\n    }\n    function getSubscriptionLength() public view returns(uint) {\n        return subscriptions.length;\n    }\n    function buyDNSName(string memory _dnsName) public payable returns(uint) {\n    \t bool entryFound = false;\n        for (uint i=0; i<subscriptions.length; i++) {\n            if (stringsEqual(subscriptions[i].dnsName,_dnsName)) {\n                 subscriptions[i].subscriptionYears = subscriptions[i].subscriptionYears +msg.value;\n            \t entryFound = true;\t\n            }\n        }\n        if(entryFound ==false){\n        subscriptions.length++;\n        subscriptions[subscriptions.length-1].dnsName = _dnsName;\n        subscriptions[subscriptions.length-1].subscriptionYears = msg.value;\n        }\n        return subscriptions.length;\n     }\n\tfunction stringsEqual(string storage _a, string memory _b) private view returns (bool) {\n\t\tbytes storage a = bytes(_a);\n\t\tbytes memory b = bytes(_b);\n\t\tif (a.length != b.length)\n\t\t\treturn false;\n\t\tfor (uint i = 0; i < a.length; i ++)\n\t\t\tif (a[i] != b[i])\n\t\t\t\treturn false;\n\t\treturn true;\n\t}\n   \n}",
  "sourcePath": "/home/sd/ethereum-examples/contracts/DNSNaming.sol",
  "compiler": {
    "name": "solc",
    "version": "0.5.8+commit.23d335f2.Emscripten.clang"
  },
  "schemaVersion": "3.0.11",
  "updatedAt": "2019-11-07T09:17:11.108Z",
  "devdoc": {
    "methods": {}
  },
  "userdoc": {
    "methods": {}
  }
}