{
  "contractName": "Election",
  "abi": [
    {
      "constant": true,
      "inputs": [],
      "name": "candidatesCount",
      "outputs": [
        {
          "name": "",
          "type": "uint256"
        }
      ],
      "payable": false,
      "stateMutability": "view",
      "type": "function"
    },
    {
      "constant": true,
      "inputs": [
        {
          "name": "",
          "type": "uint256"
        }
      ],
      "name": "candidates",
      "outputs": [
        {
          "name": "id",
          "type": "uint256"
        },
        {
          "name": "name",
          "type": "string"
        },
        {
          "name": "voteCount",
          "type": "uint256"
        }
      ],
      "payable": false,
      "stateMutability": "view",
      "type": "function"
    },
    {
      "constant": true,
      "inputs": [
        {
          "name": "",
          "type": "address"
        }
      ],
      "name": "voters",
      "outputs": [
        {
          "name": "",
          "type": "bool"
        }
      ],
      "payable": false,
      "stateMutability": "view",
      "type": "function"
    },
    {
      "inputs": [],
      "payable": true,
      "stateMutability": "payable",
      "type": "constructor"
    },
    {
      "anonymous": false,
      "inputs": [
        {
          "indexed": true,
          "name": "_candidateId",
          "type": "uint256"
        }
      ],
      "name": "votedEvent",
      "type": "event"
    },
    {
      "constant": false,
      "inputs": [
        {
          "name": "_candidateId",
          "type": "uint256"
        }
      ],
      "name": "vote",
      "outputs": [],
      "payable": false,
      "stateMutability": "nonpayable",
      "type": "function"
    }
  ],
  "bytecode": "0x60806040526100486040518060400160405280600b81526020017f43616e64696461746520310000000000000000000000000000000000000000008152506100d560201b60201c565b61008c6040518060400160405280600b81526020017f43616e64696461746520320000000000000000000000000000000000000000008152506100d560201b60201c565b6100d06040518060400160405280600b81526020017f43616e64696461746520330000000000000000000000000000000000000000008152506100d560201b60201c565b6101f6565b600260008154809291906001019190505550604051806060016040528060025481526020018281526020016000815250600160006002548152602001908152602001600020600082015181600001556020820151816001019080519060200190610140929190610151565b506040820151816002015590505050565b828054600181600116156101000203166002900490600052602060002090601f016020900481019282601f1061019257805160ff19168380011785556101c0565b828001600101855582156101c0579182015b828111156101bf5782518255916020019190600101906101a4565b5b5090506101cd91906101d1565b5090565b6101f391905b808211156101ef5760008160009055506001016101d7565b5090565b90565b6103e0806102056000396000f3fe608060405234801561001057600080fd5b506004361061004c5760003560e01c80630121b93f146100515780632d35a8a21461007f5780633477ee2e1461009d578063a3ec138d14610152575b600080fd5b61007d6004803603602081101561006757600080fd5b81019080803590602001909291905050506101ae565b005b6100876102cc565b6040518082815260200191505060405180910390f35b6100c9600480360360208110156100b357600080fd5b81019080803590602001909291905050506102d2565b6040518084815260200180602001838152602001828103825284818151815260200191508051906020019080838360005b838110156101155780820151818401526020810190506100fa565b50505050905090810190601f1680156101425780820380516001836020036101000a031916815260200191505b5094505050505060405180910390f35b6101946004803603602081101561016857600080fd5b81019080803573ffffffffffffffffffffffffffffffffffffffff169060200190929190505050610394565b604051808215151515815260200191505060405180910390f35b6000803373ffffffffffffffffffffffffffffffffffffffff1673ffffffffffffffffffffffffffffffffffffffff16815260200190815260200160002060009054906101000a900460ff161561020457600080fd5b60008111801561021657506002548111155b61021f57600080fd5b60016000803373ffffffffffffffffffffffffffffffffffffffff1673ffffffffffffffffffffffffffffffffffffffff16815260200190815260200160002060006101000a81548160ff0219169083151502179055506001600082815260200190815260200160002060020160008154809291906001019190505550807ffff3c900d938d21d0990d786e819f29b8d05c1ef587b462b939609625b684b1660405160405180910390a250565b60025481565b6001602052806000526040600020600091509050806000015490806001018054600181600116156101000203166002900480601f0160208091040260200160405190810160405280929190818152602001828054600181600116156101000203166002900480156103845780601f1061035957610100808354040283529160200191610384565b820191906000526020600020905b81548152906001019060200180831161036757829003601f168201915b5050505050908060020154905083565b60006020528060005260406000206000915054906101000a900460ff168156fea165627a7a72305820d24181a7c14f22581e41534e1db03ac7540afbb0ca439468adfe8fb50486d5690029",
  "source": "pragma solidity ^0.5.0;\n\ncontract Election {\n    // Model a Candidate\n    struct Candidate {\n        uint id;\n        string name;\n        uint voteCount;\n    }\n\n    // Store accounts that have voted\n    mapping(address => bool) public voters;\n    // Store Candidates\n    // Fetch Candidate\n    mapping(uint => Candidate) public candidates;\n    // Store Candidates Count\n    uint public candidatesCount;\n\n    // voted event\n    event votedEvent (\n        uint indexed _candidateId\n    );\n\n\tconstructor() public payable {\n        addCandidate(\"Candidate 1\");\n        addCandidate(\"Candidate 2\");\n        addCandidate(\"Candidate 3\");\n    }\n\n    function addCandidate (string memory _name) internal {\n        candidatesCount ++;\n        candidates[candidatesCount] = Candidate(candidatesCount, _name, 0);\n    }\n\n    function vote (uint _candidateId) public {\n        // require that they haven't voted before\n        require(!voters[msg.sender]);\n\n        // require a valid candidate\n        require(_candidateId > 0 && _candidateId <= candidatesCount);\n\n        // record that voter has voted\n        voters[msg.sender] = true;\n\n        // update candidate vote Count\n        candidates[_candidateId].voteCount ++;\n\n        // trigger voted event\n        emit votedEvent(_candidateId);\n    }\n}",
  "sourcePath": "/home/sd/ethereum-examples/contracts/Election.sol",
  "compiler": {
    "name": "solc",
    "version": "0.5.8+commit.23d335f2.Emscripten.clang"
  },
  "schemaVersion": "3.0.11",
  "updatedAt": "2019-11-06T19:29:11.662Z",
  "devdoc": {
    "methods": {}
  },
  "userdoc": {
    "methods": {}
  }
}