{
  "contractName": "Lottery",
  "abi": [
    {
      "constant": true,
      "inputs": [
        {
          "name": "",
          "type": "uint256"
        }
      ],
      "name": "owners",
      "outputs": [
        {
          "name": "",
          "type": "address"
        }
      ],
      "payable": false,
      "stateMutability": "view",
      "type": "function"
    },
    {
      "constant": false,
      "inputs": [],
      "name": "buyTicket",
      "outputs": [],
      "payable": true,
      "stateMutability": "payable",
      "type": "function"
    },
    {
      "constant": true,
      "inputs": [],
      "name": "getBalance",
      "outputs": [
        {
          "name": "",
          "type": "uint256"
        }
      ],
      "payable": false,
      "stateMutability": "view",
      "type": "function"
    },
    {
      "constant": true,
      "inputs": [],
      "name": "getEntries",
      "outputs": [
        {
          "name": "",
          "type": "uint256"
        }
      ],
      "payable": false,
      "stateMutability": "view",
      "type": "function"
    },
    {
      "constant": false,
      "inputs": [],
      "name": "finalizeResult",
      "outputs": [],
      "payable": true,
      "stateMutability": "payable",
      "type": "function"
    }
  ],
  "bytecode": "0x608060405234801561001057600080fd5b506103d6806100206000396000f3fe60806040526004361061004a5760003560e01c8063025e7c271461004f57806312065fe0146100ca57806317be85c3146100f557806361cac41814610120578063edca914c1461012a575b600080fd5b34801561005b57600080fd5b506100886004803603602081101561007257600080fd5b8101908080359060200190929190505050610134565b604051808273ffffffffffffffffffffffffffffffffffffffff1673ffffffffffffffffffffffffffffffffffffffff16815260200191505060405180910390f35b3480156100d657600080fd5b506100df610170565b6040518082815260200191505060405180910390f35b34801561010157600080fd5b5061010a61018f565b6040518082815260200191505060405180910390f35b61012861019b565b005b610132610266565b005b6000818154811061014157fe5b906000526020600020016000915054906101000a900473ffffffffffffffffffffffffffffffffffffffff1681565b60003073ffffffffffffffffffffffffffffffffffffffff1631905090565b60008080549050905090565b60006101c13073ffffffffffffffffffffffffffffffffffffffff1631604b60646102d9565b90506000808054905042816101d257fe5b06815481106101dd57fe5b9060005260206000200160009054906101000a900473ffffffffffffffffffffffffffffffffffffffff1673ffffffffffffffffffffffffffffffffffffffff166108fc829081150290604051600060405180830381858888f1935050505015801561024d573d6000803e3d6000fd5b5060006001819055506000806102639190610364565b50565b60003390806001815401808255809150509060018203906000526020600020016000909192909190916101000a81548173ffffffffffffffffffffffffffffffffffffffff021916908373ffffffffffffffffffffffffffffffffffffffff160217905550503460015401600181905550565b6000806102e685856102fc565b90506102f2818461032b565b9150509392505050565b6000808284029050600084148061031b57508284828161031857fe5b04145b61032157fe5b8091505092915050565b600080821161033657fe5b600082848161034157fe5b04905082848161034d57fe5b0681840201841461035a57fe5b8091505092915050565b50805460008255906000526020600020908101906103829190610385565b50565b6103a791905b808211156103a357600081600090555060010161038b565b5090565b9056fea165627a7a723058204be988b63d9d5345d4ca1560bae4f911e45b832baff96ca1cdba8e6db64b59220029",
  "source": "pragma solidity ^0.5.0;\ncontract Lottery{\n    address payable [] public owners;\n    uint amountReceived;\n    \n    function buyTicket() public payable{\n        owners.push(msg.sender);\n        amountReceived=amountReceived+msg.value;\n    }\n    function getBalance() public view returns(uint) {\n        return address(this).balance;\n    }    \n    function getEntries() public view returns(uint) {\n        return owners.length;\n    }\n    \n    function finalizeResult() public payable {\n        uint partValue = getPercentValue(address(this).balance,75,100);\n        owners[ now % owners.length ].transfer(partValue);\n        amountReceived=0;\n        delete owners;\n    }\n    \n    function getPercentValue(uint _balance, uint _numerator, uint _denominator) private pure returns ( uint) {\n     uint mul1 = safeMul(_balance,_numerator);\n     return safeDiv(mul1,_denominator);\n    }\n\n    function safeMul(uint a, uint b) private pure returns (uint) {\n        uint c = a * b;\n        assert(a == 0 || c / a == b);\n        return c;\n    }\n\n    function safeDiv(uint a, uint b) private pure returns (uint) {\n        assert(b > 0);\n        uint c = a / b;\n        assert(a == b * c + a % b);\n        return c;\n    }\n}\n",
  "sourcePath": "/home/sd/ethereum-examples/contracts/Lottery.sol",
  "compiler": {
    "name": "solc",
    "version": "0.5.8+commit.23d335f2.Emscripten.clang"
  },
  "schemaVersion": "3.0.11",
  "updatedAt": "2019-11-07T09:17:10.748Z",
  "devdoc": {
    "methods": {}
  },
  "userdoc": {
    "methods": {}
  }
}